{
  "contractName": "OrderDetails",
  "abi": [
    {
      "constant": true,
      "inputs": [
        {
          "name": "",
          "type": "uint256"
        }
      ],
      "name": "order",
      "outputs": [
        {
          "name": "order_id",
          "type": "uint256"
        },
        {
          "name": "order_left_from_farmer",
          "type": "uint256"
        },
        {
          "name": "processed_by_thirdparty",
          "type": "uint256"
        },
        {
          "name": "processed_by_store",
          "type": "uint256"
        },
        {
          "name": "order_cancel",
          "type": "uint256"
        },
        {
          "name": "hashdata",
          "type": "string"
        }
      ],
      "payable": false,
      "stateMutability": "view",
      "type": "function"
    },
    {
      "constant": true,
      "inputs": [],
      "name": "orderCount",
      "outputs": [
        {
          "name": "",
          "type": "uint256"
        }
      ],
      "payable": false,
      "stateMutability": "view",
      "type": "function"
    },
    {
      "constant": false,
      "inputs": [
        {
          "name": "order_id",
          "type": "uint256"
        },
        {
          "name": "order_left_from_farmer",
          "type": "uint256"
        },
        {
          "name": "processed_by_thirdparty",
          "type": "uint256"
        },
        {
          "name": "processed_by_store",
          "type": "uint256"
        },
        {
          "name": "order_cancel",
          "type": "uint256"
        },
        {
          "name": "hashdata",
          "type": "string"
        }
      ],
      "name": "addOrder",
      "outputs": [],
      "payable": false,
      "stateMutability": "nonpayable",
      "type": "function"
    },
    {
      "constant": false,
      "inputs": [
        {
          "name": "order_id",
          "type": "uint256"
        },
        {
          "name": "order_left_from_farmer",
          "type": "uint256"
        }
      ],
      "name": "updateFarmerStatus",
      "outputs": [],
      "payable": false,
      "stateMutability": "nonpayable",
      "type": "function"
    },
    {
      "constant": false,
      "inputs": [
        {
          "name": "order_id",
          "type": "uint256"
        },
        {
          "name": "processed_by_thirdparty",
          "type": "uint256"
        }
      ],
      "name": "updateThirdpartyStatus",
      "outputs": [],
      "payable": false,
      "stateMutability": "nonpayable",
      "type": "function"
    },
    {
      "constant": false,
      "inputs": [
        {
          "name": "order_id",
          "type": "uint256"
        },
        {
          "name": "processed_by_store",
          "type": "uint256"
        }
      ],
      "name": "updateStoreStatus",
      "outputs": [],
      "payable": false,
      "stateMutability": "nonpayable",
      "type": "function"
    },
    {
      "constant": false,
      "inputs": [
        {
          "name": "order_id",
          "type": "uint256"
        },
        {
          "name": "order_cancel",
          "type": "uint256"
        }
      ],
      "name": "cancelOrder",
      "outputs": [],
      "payable": false,
      "stateMutability": "nonpayable",
      "type": "function"
    }
  ],
  "bytecode": "0x608060405234801561001057600080fd5b50610621806100206000396000f3fe608060405234801561001057600080fd5b506004361061007d5760003560e01c80633243a0901161005b5780633243a090146101a2578063370fa674146101da578063525c04d2146102c7578063b6ed0632146102ff5761007d565b8063104f62051461008257806321603f43146100ba5780632453ffa814610184575b600080fd5b6100b86004803603604081101561009857600080fd5b810190808035906020019092919080359060200190929190505050610337565b005b6100e6600480360360208110156100d057600080fd5b810190808035906020019092919050505061035c565b6040518087815260200186815260200185815260200184815260200183815260200180602001828103825283818151815260200191508051906020019080838360005b83811015610144578082015181840152602081019050610129565b50505050905090810190601f1680156101715780820380516001836020036101000a031916815260200191505b5097505050505050505060405180910390f35b61018c610430565b6040518082815260200191505060405180910390f35b6101d8600480360360408110156101b857600080fd5b810190808035906020019092919080359060200190929190505050610436565b005b6102c5600480360360c08110156101f057600080fd5b8101908080359060200190929190803590602001909291908035906020019092919080359060200190929190803590602001909291908035906020019064010000000081111561023f57600080fd5b82018360208201111561025157600080fd5b8035906020019184600183028401116401000000008311171561027357600080fd5b91908080601f016020809104026020016040519081016040528093929190818152602001838380828437600081840152601f19601f82011690508083019250505050505050919291929050505061045b565b005b6102fd600480360360408110156102dd57600080fd5b810190808035906020019092919080359060200190929190505050610506565b005b6103356004803603604081101561031557600080fd5b81019080803590602001909291908035906020019092919050505061052b565b005b6000806000848152602001908152602001600020905060018160020181905550505050565b6000602052806000526040600020600091509050806000015490806001015490806002015490806003015490806004015490806005018054600181600116156101000203166002900480601f0160208091040260200160405190810160405280929190818152602001828054600181600116156101000203166002900480156104265780601f106103fb57610100808354040283529160200191610426565b820191906000526020600020905b81548152906001019060200180831161040957829003601f168201915b5050505050905086565b60015481565b6000806000848152602001908152602001600020905060018160030181905550505050565b6001600081548092919060010191905055506040518060c0016040528087815260200186815260200185815260200184815260200183815260200182815250600080888152602001908152602001600020600082015181600001556020820151816001015560408201518160020155606082015181600301556080820151816004015560a08201518160050190805190602001906104fa929190610550565b50905050505050505050565b6000806000848152602001908152602001600020905060018160010181905550505050565b6000806000848152602001908152602001600020905060018160040181905550505050565b828054600181600116156101000203166002900490600052602060002090601f016020900481019282601f1061059157805160ff19168380011785556105bf565b828001600101855582156105bf579182015b828111156105be5782518255916020019190600101906105a3565b5b5090506105cc91906105d0565b5090565b6105f291905b808211156105ee5760008160009055506001016105d6565b5090565b9056fea165627a7a72305820eb119d4ac210743ae99301215ab08d2aaac4066d6d0f00b9cd25dd32cf5004560029",
  "source": "pragma solidity 0.5.8;\r\n\r\ncontract  OrderDetails{\r\n\r\n    struct orderDetail{\r\n        uint order_id;\r\n        uint order_left_from_farmer;\r\n        uint processed_by_thirdparty;\r\n        uint processed_by_store;\r\n        uint order_cancel;\r\n        string hashdata;\r\n    }\r\n    \r\n    mapping(uint=>orderDetail) public order;\r\n    uint public orderCount;\r\n   \r\n    \r\n    function addOrder(uint order_id, uint order_left_from_farmer, uint processed_by_thirdparty, uint processed_by_store, uint order_cancel, string memory hashdata) public{\r\n        orderCount++;\r\n        order[order_id] = orderDetail(order_id, order_left_from_farmer, processed_by_thirdparty, processed_by_store, order_cancel, hashdata);\r\n    }\r\n    \r\n    \r\n    function updateFarmerStatus(uint order_id, uint order_left_from_farmer) public{\r\n        orderDetail storage ord = order[order_id];\r\n        ord.order_left_from_farmer = 1;\r\n    }\r\n    \r\n    \r\n    function updateThirdpartyStatus(uint order_id, uint processed_by_thirdparty) public{\r\n        orderDetail storage ord = order[order_id];\r\n        ord.processed_by_thirdparty = 1;\r\n    }\r\n    \r\n    function updateStoreStatus(uint order_id, uint processed_by_store) public{\r\n        orderDetail storage ord = order[order_id];\r\n        ord.processed_by_store = 1;\r\n    }\r\n    \r\n    \r\n    \r\n    function cancelOrder(uint order_id, uint order_cancel) public{\r\n        orderDetail storage ord = order[order_id];\r\n        ord.order_cancel = 1;\r\n    }\r\n    \r\n    \r\n    \r\n    \r\n\r\n}",
  "sourcePath": "C:/wamp64/www/agrifood/contracts/OrderDetails.sol",
  "compiler": {
    "name": "solc",
    "version": "0.5.8+commit.23d335f2.Emscripten.clang"
  },
  "schemaVersion": "3.0.16",
  "updatedAt": "2020-02-02T08:43:38.106Z",
  "devdoc": {
    "methods": {}
  },
  "userdoc": {
    "methods": {}
  }
}