{
  "contractName": "RegisterUser",
  "abi": [
    {
      "constant": true,
      "inputs": [],
      "name": "userCount",
      "outputs": [
        {
          "name": "",
          "type": "uint256"
        }
      ],
      "payable": false,
      "stateMutability": "view",
      "type": "function"
    },
    {
      "constant": true,
      "inputs": [
        {
          "name": "",
          "type": "uint256"
        }
      ],
      "name": "user",
      "outputs": [
        {
          "name": "user_id",
          "type": "uint256"
        },
        {
          "name": "user_name",
          "type": "string"
        },
        {
          "name": "user_email",
          "type": "string"
        },
        {
          "name": "user_password",
          "type": "string"
        },
        {
          "name": "user_type_id",
          "type": "uint256"
        },
        {
          "name": "count",
          "type": "uint256"
        }
      ],
      "payable": false,
      "stateMutability": "view",
      "type": "function"
    },
    {
      "constant": false,
      "inputs": [
        {
          "name": "user_id",
          "type": "uint256"
        },
        {
          "name": "user_name",
          "type": "string"
        },
        {
          "name": "user_email",
          "type": "string"
        },
        {
          "name": "user_password",
          "type": "string"
        },
        {
          "name": "user_type_id",
          "type": "uint256"
        }
      ],
      "name": "addUser",
      "outputs": [],
      "payable": false,
      "stateMutability": "nonpayable",
      "type": "function"
    }
  ],
  "bytecode": "0x608060405234801561001057600080fd5b506107a4806100206000396000f3fe608060405234801561001057600080fd5b50600436106100415760003560e01c806307973ccf1461004657806319fe40bd14610064578063553275be14610261575b600080fd5b61004e6103f5565b6040518082815260200191505060405180910390f35b61025f600480360360a081101561007a57600080fd5b8101908080359060200190929190803590602001906401000000008111156100a157600080fd5b8201836020820111156100b357600080fd5b803590602001918460018302840111640100000000831117156100d557600080fd5b91908080601f016020809104026020016040519081016040528093929190818152602001838380828437600081840152601f19601f8201169050808301925050505050505091929192908035906020019064010000000081111561013857600080fd5b82018360208201111561014a57600080fd5b8035906020019184600183028401116401000000008311171561016c57600080fd5b91908080601f016020809104026020016040519081016040528093929190818152602001838380828437600081840152601f19601f820116905080830192505050505050509192919290803590602001906401000000008111156101cf57600080fd5b8201836020820111156101e157600080fd5b8035906020019184600183028401116401000000008311171561020357600080fd5b91908080601f016020809104026020016040519081016040528093929190818152602001838380828437600081840152601f19601f820116905080830192505050505050509192919290803590602001909291905050506103fb565b005b61028d6004803603602081101561027757600080fd5b81019080803590602001909291905050506104cf565b60405180878152602001806020018060200180602001868152602001858152602001848103845289818151815260200191508051906020019080838360005b838110156102e75780820151818401526020810190506102cc565b50505050905090810190601f1680156103145780820380516001836020036101000a031916815260200191505b50848103835288818151815260200191508051906020019080838360005b8381101561034d578082015181840152602081019050610332565b50505050905090810190601f16801561037a5780820380516001836020036101000a031916815260200191505b50848103825287818151815260200191508051906020019080838360005b838110156103b3578082015181840152602081019050610398565b50505050905090810190601f1680156103e05780820380516001836020036101000a031916815260200191505b50995050505050505050505060405180910390f35b60015481565b6001600081548092919060010191905055506040518060c0016040528086815260200185815260200184815260200183815260200182815260200160015481525060008060015481526020019081526020016000206000820151816000015560208201518160010190805190602001906104769291906106d3565b5060408201518160020190805190602001906104939291906106d3565b5060608201518160030190805190602001906104b09291906106d3565b506080820151816004015560a082015181600501559050505050505050565b6000602052806000526040600020600091509050806000015490806001018054600181600116156101000203166002900480601f0160208091040260200160405190810160405280929190818152602001828054600181600116156101000203166002900480156105815780601f1061055657610100808354040283529160200191610581565b820191906000526020600020905b81548152906001019060200180831161056457829003601f168201915b505050505090806002018054600181600116156101000203166002900480601f01602080910402602001604051908101604052809291908181526020018280546001816001161561010002031660029004801561061f5780601f106105f45761010080835404028352916020019161061f565b820191906000526020600020905b81548152906001019060200180831161060257829003601f168201915b505050505090806003018054600181600116156101000203166002900480601f0160208091040260200160405190810160405280929190818152602001828054600181600116156101000203166002900480156106bd5780601f10610692576101008083540402835291602001916106bd565b820191906000526020600020905b8154815290600101906020018083116106a057829003601f168201915b5050505050908060040154908060050154905086565b828054600181600116156101000203166002900490600052602060002090601f016020900481019282601f1061071457805160ff1916838001178555610742565b82800160010185558215610742579182015b82811115610741578251825591602001919060010190610726565b5b50905061074f9190610753565b5090565b61077591905b80821115610771576000816000905550600101610759565b5090565b9056fea165627a7a72305820a59894207c1249eb29b937328587c17d97e81319dd17010bc1b7fb3f99eeae390029",
  "source": "pragma solidity 0.5.8;\r\n\r\ncontract  RegisterUser{\r\n\r\n    struct userDetails{\r\n        uint user_id;\r\n        string user_name;\r\n        string user_email;\r\n        string user_password;\r\n        uint user_type_id;\r\n        uint count;\r\n    }\r\n    \r\n    mapping(uint=>userDetails) public user;\r\n    uint public userCount;\r\n    \r\n    function addUser(uint user_id, string memory user_name, string memory user_email, string memory user_password, uint user_type_id) public{\r\n        userCount++;\r\n        user[userCount] = userDetails(user_id, user_name, user_email, user_password, user_type_id, userCount);\r\n    }\r\n\r\n}",
  "sourcePath": "C:/wamp64/www/agrifood/contracts/RegisterUser.sol",
  "compiler": {
    "name": "solc",
    "version": "0.5.8+commit.23d335f2.Emscripten.clang"
  },
  "schemaVersion": "3.0.16",
  "updatedAt": "2020-02-02T08:43:38.099Z",
  "devdoc": {
    "methods": {}
  },
  "userdoc": {
    "methods": {}
  }
}